:100000000EC01DC01CC01BC01AC01AC018C017C02B
:1000100016C015C014C013C012C011C010C01124E6
:100020001FBECFE5D2E0DEBFCDBF20E0A0E6B0E04E
:1000300001C01D92A236B207E1F730D031C0E0CF47
:100040001F920F920FB60F9211248F939F9380915E
:100050006000909161008F31910531F488B38095F3
:1000600088BB81E090E001C001969093610080938D
:1000700060009F918F910F900FBE0F901F90189569
:1000800087B39FEF97BB1ABC85E083BF789412BEFD
:1000900089B7826089BF88B398BB0895F1DFFFCF2D
:0400A000F894FFCF02
:00000001FF
